{
  "_format": "hh-sol-artifact-1",
  "contractName": "BorrowYourCar",
  "sourceName": "contracts/BorrowYourCar.sol",
  "abi": [
    {
      "inputs": [
        {
          "internalType": "address",
          "name": "tokenAddress",
          "type": "address"
        }
      ],
      "stateMutability": "nonpayable",
      "type": "constructor"
    },
    {
      "inputs": [
        {
          "internalType": "address",
          "name": "sender",
          "type": "address"
        },
        {
          "internalType": "uint256",
          "name": "tokenId",
          "type": "uint256"
        },
        {
          "internalType": "address",
          "name": "owner",
          "type": "address"
        }
      ],
      "name": "ERC721IncorrectOwner",
      "type": "error"
    },
    {
      "inputs": [
        {
          "internalType": "address",
          "name": "operator",
          "type": "address"
        },
        {
          "internalType": "uint256",
          "name": "tokenId",
          "type": "uint256"
        }
      ],
      "name": "ERC721InsufficientApproval",
      "type": "error"
    },
    {
      "inputs": [
        {
          "internalType": "address",
          "name": "approver",
          "type": "address"
        }
      ],
      "name": "ERC721InvalidApprover",
      "type": "error"
    },
    {
      "inputs": [
        {
          "internalType": "address",
          "name": "operator",
          "type": "address"
        }
      ],
      "name": "ERC721InvalidOperator",
      "type": "error"
    },
    {
      "inputs": [
        {
          "internalType": "address",
          "name": "owner",
          "type": "address"
        }
      ],
      "name": "ERC721InvalidOwner",
      "type": "error"
    },
    {
      "inputs": [
        {
          "internalType": "address",
          "name": "receiver",
          "type": "address"
        }
      ],
      "name": "ERC721InvalidReceiver",
      "type": "error"
    },
    {
      "inputs": [
        {
          "internalType": "address",
          "name": "sender",
          "type": "address"
        }
      ],
      "name": "ERC721InvalidSender",
      "type": "error"
    },
    {
      "inputs": [
        {
          "internalType": "uint256",
          "name": "tokenId",
          "type": "uint256"
        }
      ],
      "name": "ERC721NonexistentToken",
      "type": "error"
    },
    {
      "anonymous": false,
      "inputs": [
        {
          "indexed": true,
          "internalType": "address",
          "name": "owner",
          "type": "address"
        },
        {
          "indexed": true,
          "internalType": "address",
          "name": "approved",
          "type": "address"
        },
        {
          "indexed": true,
          "internalType": "uint256",
          "name": "tokenId",
          "type": "uint256"
        }
      ],
      "name": "Approval",
      "type": "event"
    },
    {
      "anonymous": false,
      "inputs": [
        {
          "indexed": true,
          "internalType": "address",
          "name": "owner",
          "type": "address"
        },
        {
          "indexed": true,
          "internalType": "address",
          "name": "operator",
          "type": "address"
        },
        {
          "indexed": false,
          "internalType": "bool",
          "name": "approved",
          "type": "bool"
        }
      ],
      "name": "ApprovalForAll",
      "type": "event"
    },
    {
      "anonymous": false,
      "inputs": [
        {
          "indexed": false,
          "internalType": "uint32",
          "name": "carTokenId",
          "type": "uint32"
        },
        {
          "indexed": false,
          "internalType": "address",
          "name": "borrower",
          "type": "address"
        },
        {
          "indexed": false,
          "internalType": "uint256",
          "name": "startTime",
          "type": "uint256"
        },
        {
          "indexed": false,
          "internalType": "uint256",
          "name": "duration",
          "type": "uint256"
        }
      ],
      "name": "CarBorrowed",
      "type": "event"
    },
    {
      "anonymous": false,
      "inputs": [
        {
          "indexed": true,
          "internalType": "address",
          "name": "from",
          "type": "address"
        },
        {
          "indexed": true,
          "internalType": "address",
          "name": "to",
          "type": "address"
        },
        {
          "indexed": true,
          "internalType": "uint256",
          "name": "tokenId",
          "type": "uint256"
        }
      ],
      "name": "Transfer",
      "type": "event"
    },
    {
      "inputs": [
        {
          "internalType": "address",
          "name": "to",
          "type": "address"
        },
        {
          "internalType": "uint256",
          "name": "tokenId",
          "type": "uint256"
        }
      ],
      "name": "approve",
      "outputs": [],
      "stateMutability": "nonpayable",
      "type": "function"
    },
    {
      "inputs": [
        {
          "internalType": "address",
          "name": "owner",
          "type": "address"
        }
      ],
      "name": "balanceOf",
      "outputs": [
        {
          "internalType": "uint256",
          "name": "",
          "type": "uint256"
        }
      ],
      "stateMutability": "view",
      "type": "function"
    },
    {
      "inputs": [
        {
          "internalType": "uint256",
          "name": "id",
          "type": "uint256"
        },
        {
          "internalType": "uint256",
          "name": "time",
          "type": "uint256"
        }
      ],
      "name": "borrowcar",
      "outputs": [
        {
          "internalType": "bool",
          "name": "",
          "type": "bool"
        }
      ],
      "stateMutability": "nonpayable",
      "type": "function"
    },
    {
      "inputs": [
        {
          "internalType": "uint256",
          "name": "",
          "type": "uint256"
        }
      ],
      "name": "borrowcars",
      "outputs": [
        {
          "internalType": "uint256",
          "name": "",
          "type": "uint256"
        }
      ],
      "stateMutability": "view",
      "type": "function"
    },
    {
      "inputs": [
        {
          "internalType": "uint256",
          "name": "",
          "type": "uint256"
        }
      ],
      "name": "cars",
      "outputs": [
        {
          "internalType": "address",
          "name": "owner",
          "type": "address"
        },
        {
          "internalType": "address",
          "name": "borrower",
          "type": "address"
        },
        {
          "internalType": "uint256",
          "name": "borrowUntil",
          "type": "uint256"
        }
      ],
      "stateMutability": "view",
      "type": "function"
    },
    {
      "inputs": [
        {
          "internalType": "uint256",
          "name": "tokenId",
          "type": "uint256"
        }
      ],
      "name": "getApproved",
      "outputs": [
        {
          "internalType": "address",
          "name": "",
          "type": "address"
        }
      ],
      "stateMutability": "view",
      "type": "function"
    },
    {
      "inputs": [
        {
          "internalType": "uint256",
          "name": "id",
          "type": "uint256"
        }
      ],
      "name": "getborrowtime",
      "outputs": [
        {
          "internalType": "uint256",
          "name": "",
          "type": "uint256"
        }
      ],
      "stateMutability": "view",
      "type": "function"
    },
    {
      "inputs": [],
      "name": "getnowtime",
      "outputs": [
        {
          "internalType": "uint256",
          "name": "",
          "type": "uint256"
        }
      ],
      "stateMutability": "view",
      "type": "function"
    },
    {
      "inputs": [
        {
          "internalType": "uint256",
          "name": "id",
          "type": "uint256"
        }
      ],
      "name": "getowner",
      "outputs": [
        {
          "internalType": "address",
          "name": "",
          "type": "address"
        }
      ],
      "stateMutability": "view",
      "type": "function"
    },
    {
      "inputs": [],
      "name": "getownercar",
      "outputs": [
        {
          "internalType": "uint256[]",
          "name": "",
          "type": "uint256[]"
        }
      ],
      "stateMutability": "view",
      "type": "function"
    },
    {
      "inputs": [],
      "name": "getunborrowcar",
      "outputs": [
        {
          "internalType": "uint256[]",
          "name": "",
          "type": "uint256[]"
        }
      ],
      "stateMutability": "view",
      "type": "function"
    },
    {
      "inputs": [
        {
          "internalType": "uint256",
          "name": "id",
          "type": "uint256"
        }
      ],
      "name": "getwhoborrowcar",
      "outputs": [
        {
          "internalType": "address",
          "name": "",
          "type": "address"
        }
      ],
      "stateMutability": "view",
      "type": "function"
    },
    {
      "inputs": [],
      "name": "helloworld",
      "outputs": [
        {
          "internalType": "string",
          "name": "",
          "type": "string"
        }
      ],
      "stateMutability": "pure",
      "type": "function"
    },
    {
      "inputs": [
        {
          "internalType": "address",
          "name": "owner",
          "type": "address"
        },
        {
          "internalType": "address",
          "name": "operator",
          "type": "address"
        }
      ],
      "name": "isApprovedForAll",
      "outputs": [
        {
          "internalType": "bool",
          "name": "",
          "type": "bool"
        }
      ],
      "stateMutability": "view",
      "type": "function"
    },
    {
      "inputs": [],
      "name": "myERC20",
      "outputs": [
        {
          "internalType": "contract MyERC20",
          "name": "",
          "type": "address"
        }
      ],
      "stateMutability": "view",
      "type": "function"
    },
    {
      "inputs": [],
      "name": "name",
      "outputs": [
        {
          "internalType": "string",
          "name": "",
          "type": "string"
        }
      ],
      "stateMutability": "view",
      "type": "function"
    },
    {
      "inputs": [],
      "name": "newcar",
      "outputs": [],
      "stateMutability": "nonpayable",
      "type": "function"
    },
    {
      "inputs": [
        {
          "internalType": "uint256",
          "name": "tokenId",
          "type": "uint256"
        }
      ],
      "name": "ownerOf",
      "outputs": [
        {
          "internalType": "address",
          "name": "",
          "type": "address"
        }
      ],
      "stateMutability": "view",
      "type": "function"
    },
    {
      "inputs": [
        {
          "internalType": "address",
          "name": "",
          "type": "address"
        },
        {
          "internalType": "uint256",
          "name": "",
          "type": "uint256"
        }
      ],
      "name": "owners",
      "outputs": [
        {
          "internalType": "uint256",
          "name": "",
          "type": "uint256"
        }
      ],
      "stateMutability": "view",
      "type": "function"
    },
    {
      "inputs": [
        {
          "internalType": "address",
          "name": "from",
          "type": "address"
        },
        {
          "internalType": "address",
          "name": "to",
          "type": "address"
        },
        {
          "internalType": "uint256",
          "name": "tokenId",
          "type": "uint256"
        }
      ],
      "name": "safeTransferFrom",
      "outputs": [],
      "stateMutability": "nonpayable",
      "type": "function"
    },
    {
      "inputs": [
        {
          "internalType": "address",
          "name": "from",
          "type": "address"
        },
        {
          "internalType": "address",
          "name": "to",
          "type": "address"
        },
        {
          "internalType": "uint256",
          "name": "tokenId",
          "type": "uint256"
        },
        {
          "internalType": "bytes",
          "name": "data",
          "type": "bytes"
        }
      ],
      "name": "safeTransferFrom",
      "outputs": [],
      "stateMutability": "nonpayable",
      "type": "function"
    },
    {
      "inputs": [
        {
          "internalType": "address",
          "name": "operator",
          "type": "address"
        },
        {
          "internalType": "bool",
          "name": "approved",
          "type": "bool"
        }
      ],
      "name": "setApprovalForAll",
      "outputs": [],
      "stateMutability": "nonpayable",
      "type": "function"
    },
    {
      "inputs": [
        {
          "internalType": "bytes4",
          "name": "interfaceId",
          "type": "bytes4"
        }
      ],
      "name": "supportsInterface",
      "outputs": [
        {
          "internalType": "bool",
          "name": "",
          "type": "bool"
        }
      ],
      "stateMutability": "view",
      "type": "function"
    },
    {
      "inputs": [],
      "name": "symbol",
      "outputs": [
        {
          "internalType": "string",
          "name": "",
          "type": "string"
        }
      ],
      "stateMutability": "view",
      "type": "function"
    },
    {
      "inputs": [
        {
          "internalType": "uint256",
          "name": "tokenId",
          "type": "uint256"
        }
      ],
      "name": "tokenURI",
      "outputs": [
        {
          "internalType": "string",
          "name": "",
          "type": "string"
        }
      ],
      "stateMutability": "view",
      "type": "function"
    },
    {
      "inputs": [
        {
          "internalType": "address",
          "name": "from",
          "type": "address"
        },
        {
          "internalType": "address",
          "name": "to",
          "type": "address"
        },
        {
          "internalType": "uint256",
          "name": "tokenId",
          "type": "uint256"
        }
      ],
      "name": "transferFrom",
      "outputs": [],
      "stateMutability": "nonpayable",
      "type": "function"
    },
    {
      "inputs": [
        {
          "internalType": "uint256",
          "name": "",
          "type": "uint256"
        }
      ],
      "name": "unborrowcars",
      "outputs": [
        {
          "internalType": "uint256",
          "name": "",
          "type": "uint256"
        }
      ],
      "stateMutability": "view",
      "type": "function"
    },
    {
      "inputs": [],
      "name": "updatecar",
      "outputs": [],
      "stateMutability": "nonpayable",
      "type": "function"
    }
  ],
  "bytecode": "0x60806040523480156200001157600080fd5b506040516200365a3803806200365a83398181016040528101906200003791906200017b565b6040518060400160405280600d81526020017f426f72726f77596f7572436172000000000000000000000000000000000000008152506040518060400160405280600381526020017f42594300000000000000000000000000000000000000000000000000000000008152508160009081620000b4919062000427565b508060019081620000c6919062000427565b50505080600a60006101000a81548173ffffffffffffffffffffffffffffffffffffffff021916908373ffffffffffffffffffffffffffffffffffffffff160217905550506200050e565b600080fd5b600073ffffffffffffffffffffffffffffffffffffffff82169050919050565b6000620001438262000116565b9050919050565b620001558162000136565b81146200016157600080fd5b50565b60008151905062000175816200014a565b92915050565b60006020828403121562000194576200019362000111565b5b6000620001a48482850162000164565b91505092915050565b600081519050919050565b7f4e487b7100000000000000000000000000000000000000000000000000000000600052604160045260246000fd5b7f4e487b7100000000000000000000000000000000000000000000000000000000600052602260045260246000fd5b600060028204905060018216806200022f57607f821691505b602082108103620002455762000244620001e7565b5b50919050565b60008190508160005260206000209050919050565b60006020601f8301049050919050565b600082821b905092915050565b600060088302620002af7fffffffffffffffffffffffffffffffffffffffffffffffffffffffffffffffff8262000270565b620002bb868362000270565b95508019841693508086168417925050509392505050565b6000819050919050565b6000819050919050565b60006200030862000302620002fc84620002d3565b620002dd565b620002d3565b9050919050565b6000819050919050565b6200032483620002e7565b6200033c62000333826200030f565b8484546200027d565b825550505050565b600090565b6200035362000344565b6200036081848462000319565b505050565b5b8181101562000388576200037c60008262000349565b60018101905062000366565b5050565b601f821115620003d757620003a1816200024b565b620003ac8462000260565b81016020851015620003bc578190505b620003d4620003cb8562000260565b83018262000365565b50505b505050565b600082821c905092915050565b6000620003fc60001984600802620003dc565b1980831691505092915050565b6000620004178383620003e9565b9150826002028217905092915050565b6200043282620001ad565b67ffffffffffffffff8111156200044e576200044d620001b8565b5b6200045a825462000216565b620004678282856200038c565b600060209050601f8311600181146200049f57600084156200048a578287015190505b62000496858262000409565b86555062000506565b601f198416620004af866200024b565b60005b82811015620004d957848901518255600182019150602085019450602081019050620004b2565b86831015620004f95784890151620004f5601f891682620003e9565b8355505b6001600288020188555050505b505050505050565b61313c806200051e6000396000f3fe608060405234801561001057600080fd5b50600436106101c45760003560e01c80637741832d116100f9578063c7c00de111610097578063e985e9c511610071578063e985e9c51461051b578063f03b37a31461054b578063f7746e361461057b578063ff646c38146105ad576101c4565b8063c7c00de11461049d578063c87b56dd146104cd578063dec6397d146104fd576101c4565b80639b3e2787116100d35780639b3e27871461042b578063a22cb4651461045b578063b2852a4a14610477578063b88d4fde14610481576101c4565b80637741832d146103d3578063851f78e4146103dd57806395d89b411461040d576101c4565b806342842e0e11610166578063677e717511610140578063677e7175146103375780636d3739c4146103555780636d8565df1461037357806370a08231146103a3576101c4565b806342842e0e146102bb5780634845ae7a146102d75780636352211e14610307576101c4565b8063095ea7b3116101a2578063095ea7b31461024757806323b872dd146102635780632f2f48591461027f57806330043baf1461029d576101c4565b806301ffc9a7146101c957806306fdde03146101f9578063081812fc14610217575b600080fd5b6101e360048036038101906101de919061240a565b6105dd565b6040516101f09190612452565b60405180910390f35b6102016106bf565b60405161020e91906124fd565b60405180910390f35b610231600480360381019061022c9190612555565b610751565b60405161023e91906125c3565b60405180910390f35b610261600480360381019061025c919061260a565b61076d565b005b61027d6004803603810190610278919061264a565b610783565b005b610287610885565b60405161029491906124fd565b60405180910390f35b6102a56108c2565b6040516102b2919061275b565b60405180910390f35b6102d560048036038101906102d0919061264a565b61091a565b005b6102f160048036038101906102ec9190612555565b61093a565b6040516102fe91906125c3565b60405180910390f35b610321600480360381019061031c9190612555565b61097a565b60405161032e91906125c3565b60405180910390f35b61033f61098c565b60405161034c919061275b565b60405180910390f35b61035d610a21565b60405161036a91906127dc565b60405180910390f35b61038d60048036038101906103889190612555565b610a47565b60405161039a9190612806565b60405180910390f35b6103bd60048036038101906103b89190612821565b610a6b565b6040516103ca9190612806565b60405180910390f35b6103db610b25565b005b6103f760048036038101906103f2919061284e565b610ce6565b6040516104049190612452565b60405180910390f35b6104156111cd565b60405161042291906124fd565b60405180910390f35b6104456004803603810190610440919061260a565b61125f565b6040516104529190612806565b60405180910390f35b610475600480360381019061047091906128ba565b611290565b005b61047f6112a6565b005b61049b60048036038101906104969190612a2f565b611546565b005b6104b760048036038101906104b29190612555565b611563565b6040516104c491906125c3565b60405180910390f35b6104e760048036038101906104e29190612555565b6115a3565b6040516104f491906124fd565b60405180910390f35b61050561160c565b6040516105129190612806565b60405180910390f35b61053560048036038101906105309190612ab2565b611614565b6040516105429190612452565b60405180910390f35b61056560048036038101906105609190612555565b6116a8565b6040516105729190612806565b60405180910390f35b61059560048036038101906105909190612555565b6116cc565b6040516105a493929190612af2565b60405180910390f35b6105c760048036038101906105c29190612555565b611736565b6040516105d49190612806565b60405180910390f35b60007f80ac58cd000000000000000000000000000000000000000000000000000000007bffffffffffffffffffffffffffffffffffffffffffffffffffffffff1916827bffffffffffffffffffffffffffffffffffffffffffffffffffffffff191614806106a857507f5b5e139f000000000000000000000000000000000000000000000000000000007bffffffffffffffffffffffffffffffffffffffffffffffffffffffff1916827bffffffffffffffffffffffffffffffffffffffffffffffffffffffff1916145b806106b857506106b782611756565b5b9050919050565b6060600080546106ce90612b58565b80601f01602080910402602001604051908101604052809291908181526020018280546106fa90612b58565b80156107475780601f1061071c57610100808354040283529160200191610747565b820191906000526020600020905b81548152906001019060200180831161072a57829003601f168201915b5050505050905090565b600061075c826117c0565b5061076682611848565b9050919050565b61077f828261077a611885565b61188d565b5050565b600073ffffffffffffffffffffffffffffffffffffffff168273ffffffffffffffffffffffffffffffffffffffff16036107f55760006040517f64a0ae920000000000000000000000000000000000000000000000000000000081526004016107ec91906125c3565b60405180910390fd5b60006108098383610804611885565b61189f565b90508373ffffffffffffffffffffffffffffffffffffffff168173ffffffffffffffffffffffffffffffffffffffff161461087f578382826040517f64283d7b00000000000000000000000000000000000000000000000000000000815260040161087693929190612b89565b60405180910390fd5b50505050565b60606040518060400160405280600b81526020017f68656c6c6f20776f726c64000000000000000000000000000000000000000000815250905090565b6060600880548060200260200160405190810160405280929190818152602001828054801561091057602002820191906000526020600020905b8154815260200190600101908083116108fc575b5050505050905090565b61093583838360405180602001604052806000815250611546565b505050565b60006006600083815260200190815260200160002060000160009054906101000a900473ffffffffffffffffffffffffffffffffffffffff169050919050565b6000610985826117c0565b9050919050565b6060600760003373ffffffffffffffffffffffffffffffffffffffff1673ffffffffffffffffffffffffffffffffffffffff168152602001908152602001600020805480602002602001604051908101604052809291908181526020018280548015610a1757602002820191906000526020600020905b815481526020019060010190808311610a03575b5050505050905090565b600a60009054906101000a900473ffffffffffffffffffffffffffffffffffffffff1681565b60098181548110610a5757600080fd5b906000526020600020016000915090505481565b60008073ffffffffffffffffffffffffffffffffffffffff168273ffffffffffffffffffffffffffffffffffffffff1603610ade5760006040517f89c62b64000000000000000000000000000000000000000000000000000000008152600401610ad591906125c3565b60405180910390fd5b600360008373ffffffffffffffffffffffffffffffffffffffff1673ffffffffffffffffffffffffffffffffffffffff168152602001908152602001600020549050919050565b6000424433604051602001610b3c93929190612c29565b60405160208183030381529060405280519060200120905060405180606001604052803373ffffffffffffffffffffffffffffffffffffffff168152602001600073ffffffffffffffffffffffffffffffffffffffff1681526020016000815250600660008360001c815260200190815260200160002060008201518160000160006101000a81548173ffffffffffffffffffffffffffffffffffffffff021916908373ffffffffffffffffffffffffffffffffffffffff16021790555060208201518160010160006101000a81548173ffffffffffffffffffffffffffffffffffffffff021916908373ffffffffffffffffffffffffffffffffffffffff16021790555060408201518160020155905050600760003373ffffffffffffffffffffffffffffffffffffffff1673ffffffffffffffffffffffffffffffffffffffff1681526020019081526020016000208160001c908060018154018082558091505060019003906000526020600020016000909190919091505560088160001c908060018154018082558091505060019003906000526020600020016000909190919091505550565b60003373ffffffffffffffffffffffffffffffffffffffff166006600085815260200190815260200160002060000160009054906101000a900473ffffffffffffffffffffffffffffffffffffffff1673ffffffffffffffffffffffffffffffffffffffff1603610d8c576040517f08c379a0000000000000000000000000000000000000000000000000000000008152600401610d8390612cb2565b60405180910390fd5b6000600660008581526020019081526020016000206002015414610db357600090506111c7565b6000600660008581526020019081526020016000206002015414610e0c576040517f08c379a0000000000000000000000000000000000000000000000000000000008152600401610e0390612d1e565b60405180910390fd5b600082905080600a60009054906101000a900473ffffffffffffffffffffffffffffffffffffffff1673ffffffffffffffffffffffffffffffffffffffff166370a08231336040518263ffffffff1660e01b8152600401610e6d91906125c3565b602060405180830381865afa158015610e8a573d6000803e3d6000fd5b505050506040513d601f19601f82011682018060405250810190610eae9190612d53565b1015610eef576040517f08c379a0000000000000000000000000000000000000000000000000000000008152600401610ee690612dcc565b60405180910390fd5b600a60009054906101000a900473ffffffffffffffffffffffffffffffffffffffff1673ffffffffffffffffffffffffffffffffffffffff166323b872dd336006600088815260200190815260200160002060000160009054906101000a900473ffffffffffffffffffffffffffffffffffffffff16846040518463ffffffff1660e01b8152600401610f8493929190612af2565b6020604051808303816000875af1158015610fa3573d6000803e3d6000fd5b505050506040513d601f19601f82011682018060405250810190610fc79190612e01565b508242610fd49190612e5d565b6006600086815260200190815260200160002060020181905550336006600086815260200190815260200160002060010160006101000a81548173ffffffffffffffffffffffffffffffffffffffff021916908373ffffffffffffffffffffffffffffffffffffffff160217905550600984908060018154018082558091505060019003906000526020600020016000909190919091505560005b6008805490508110156111c057846008828154811061109157611090612e91565b5b90600052602060002001541480156110ba575060016008805490506110b69190612ec0565b8114155b1561113e57600860016008805490506110d39190612ec0565b815481106110e4576110e3612e91565b5b90600052602060002001546008828154811061110357611102612e91565b5b9060005260206000200181905550600880548061112357611122612ef4565b5b600190038181906000526020600020016000905590556111c0565b846008828154811061115357611152612e91565b5b906000526020600020015414801561117b575060016008805490506111789190612ec0565b81145b156111ad57600880548061119257611191612ef4565b5b600190038181906000526020600020016000905590556111c0565b80806111b890612f23565b91505061106f565b5060019150505b92915050565b6060600180546111dc90612b58565b80601f016020809104026020016040519081016040528092919081815260200182805461120890612b58565b80156112555780601f1061122a57610100808354040283529160200191611255565b820191906000526020600020905b81548152906001019060200180831161123857829003601f168201915b5050505050905090565b6007602052816000526040600020818154811061127b57600080fd5b90600052602060002001600091509150505481565b6112a261129b611885565b8383611ab9565b5050565b60005b600980549050811015611543576000600982815481106112cc576112cb612e91565b5b90600052602060002001549050426006600083815260200190815260200160002060020154111580156113105750600160098054905061130c9190612ec0565b8214155b1561142f5760006006600083815260200190815260200160002060010160006101000a81548173ffffffffffffffffffffffffffffffffffffffff021916908373ffffffffffffffffffffffffffffffffffffffff160217905550600060066000838152602001908152602001600020600201819055506009600160098054905061139b9190612ec0565b815481106113ac576113ab612e91565b5b9060005260206000200154600983815481106113cb576113ca612e91565b5b906000526020600020018190555060098054806113eb576113ea612ef4565b5b60019003818190600052602060002001600090559055600881908060018154018082558091505060019003906000526020600020016000909190919091505561152f565b42600660008381526020019081526020016000206002015411158015611465575060016009805490506114629190612ec0565b82145b1561152e5760006006600083815260200190815260200160002060010160006101000a81548173ffffffffffffffffffffffffffffffffffffffff021916908373ffffffffffffffffffffffffffffffffffffffff1602179055506000600660008381526020019081526020016000206002018190555060098054806114ee576114ed612ef4565b5b6001900381819060005260206000200160009055905560088190806001815401808255809150506001900390600052602060002001600090919091909150555b5b50808061153b90612f23565b9150506112a9565b50565b611551848484610783565b61155d84848484611c28565b50505050565b60006006600083815260200190815260200160002060010160009054906101000a900473ffffffffffffffffffffffffffffffffffffffff169050919050565b60606115ae826117c0565b5060006115b9611ddf565b905060008151116115d95760405180602001604052806000815250611604565b806115e384611df6565b6040516020016115f4929190612fa7565b6040516020818303038152906040525b915050919050565b600042905090565b6000600560008473ffffffffffffffffffffffffffffffffffffffff1673ffffffffffffffffffffffffffffffffffffffff16815260200190815260200160002060008373ffffffffffffffffffffffffffffffffffffffff1673ffffffffffffffffffffffffffffffffffffffff16815260200190815260200160002060009054906101000a900460ff16905092915050565b600881815481106116b857600080fd5b906000526020600020016000915090505481565b60066020528060005260406000206000915090508060000160009054906101000a900473ffffffffffffffffffffffffffffffffffffffff16908060010160009054906101000a900473ffffffffffffffffffffffffffffffffffffffff16908060020154905083565b600060066000838152602001908152602001600020600201549050919050565b60007f01ffc9a7000000000000000000000000000000000000000000000000000000007bffffffffffffffffffffffffffffffffffffffffffffffffffffffff1916827bffffffffffffffffffffffffffffffffffffffffffffffffffffffff1916149050919050565b6000806117cc83611ec4565b9050600073ffffffffffffffffffffffffffffffffffffffff168173ffffffffffffffffffffffffffffffffffffffff160361183f57826040517f7e2732890000000000000000000000000000000000000000000000000000000081526004016118369190612806565b60405180910390fd5b80915050919050565b60006004600083815260200190815260200160002060009054906101000a900473ffffffffffffffffffffffffffffffffffffffff169050919050565b600033905090565b61189a8383836001611f01565b505050565b6000806118ab84611ec4565b9050600073ffffffffffffffffffffffffffffffffffffffff168373ffffffffffffffffffffffffffffffffffffffff16146118ed576118ec8184866120c6565b5b600073ffffffffffffffffffffffffffffffffffffffff168173ffffffffffffffffffffffffffffffffffffffff161461197e5761192f600085600080611f01565b6001600360008373ffffffffffffffffffffffffffffffffffffffff1673ffffffffffffffffffffffffffffffffffffffff168152602001908152602001600020600082825403925050819055505b600073ffffffffffffffffffffffffffffffffffffffff168573ffffffffffffffffffffffffffffffffffffffff1614611a01576001600360008773ffffffffffffffffffffffffffffffffffffffff1673ffffffffffffffffffffffffffffffffffffffff168152602001908152602001600020600082825401925050819055505b846002600086815260200190815260200160002060006101000a81548173ffffffffffffffffffffffffffffffffffffffff021916908373ffffffffffffffffffffffffffffffffffffffff160217905550838573ffffffffffffffffffffffffffffffffffffffff168273ffffffffffffffffffffffffffffffffffffffff167fddf252ad1be2c89b69c2b068fc378daa952ba7f163c4a11628f55a4df523b3ef60405160405180910390a4809150509392505050565b600073ffffffffffffffffffffffffffffffffffffffff168273ffffffffffffffffffffffffffffffffffffffff1603611b2a57816040517f5b08ba18000000000000000000000000000000000000000000000000000000008152600401611b2191906125c3565b60405180910390fd5b80600560008573ffffffffffffffffffffffffffffffffffffffff1673ffffffffffffffffffffffffffffffffffffffff16815260200190815260200160002060008473ffffffffffffffffffffffffffffffffffffffff1673ffffffffffffffffffffffffffffffffffffffff16815260200190815260200160002060006101000a81548160ff0219169083151502179055508173ffffffffffffffffffffffffffffffffffffffff168373ffffffffffffffffffffffffffffffffffffffff167f17307eab39ab6107e8899845ad3d59bd9653f200f220920489ca2b5937696c3183604051611c1b9190612452565b60405180910390a3505050565b60008373ffffffffffffffffffffffffffffffffffffffff163b1115611dd9578273ffffffffffffffffffffffffffffffffffffffff1663150b7a02611c6c611885565b8685856040518563ffffffff1660e01b8152600401611c8e9493929190613020565b6020604051808303816000875af1925050508015611cca57506040513d601f19601f82011682018060405250810190611cc79190613081565b60015b611d4e573d8060008114611cfa576040519150601f19603f3d011682016040523d82523d6000602084013e611cff565b606091505b506000815103611d4657836040517f64a0ae92000000000000000000000000000000000000000000000000000000008152600401611d3d91906125c3565b60405180910390fd5b805181602001fd5b63150b7a0260e01b7bffffffffffffffffffffffffffffffffffffffffffffffffffffffff1916817bffffffffffffffffffffffffffffffffffffffffffffffffffffffff191614611dd757836040517f64a0ae92000000000000000000000000000000000000000000000000000000008152600401611dce91906125c3565b60405180910390fd5b505b50505050565b606060405180602001604052806000815250905090565b606060006001611e058461218a565b01905060008167ffffffffffffffff811115611e2457611e23612904565b5b6040519080825280601f01601f191660200182016040528015611e565781602001600182028036833780820191505090505b509050600082602001820190505b600115611eb9578080600190039150507f3031323334353637383961626364656600000000000000000000000000000000600a86061a8153600a8581611ead57611eac6130ae565b5b04945060008503611e64575b819350505050919050565b60006002600083815260200190815260200160002060009054906101000a900473ffffffffffffffffffffffffffffffffffffffff169050919050565b8080611f3a5750600073ffffffffffffffffffffffffffffffffffffffff168273ffffffffffffffffffffffffffffffffffffffff1614155b1561206e576000611f4a846117c0565b9050600073ffffffffffffffffffffffffffffffffffffffff168373ffffffffffffffffffffffffffffffffffffffff1614158015611fb557508273ffffffffffffffffffffffffffffffffffffffff168173ffffffffffffffffffffffffffffffffffffffff1614155b8015611fc85750611fc68184611614565b155b1561200a57826040517fa9fbf51f00000000000000000000000000000000000000000000000000000000815260040161200191906125c3565b60405180910390fd5b811561206c57838573ffffffffffffffffffffffffffffffffffffffff168273ffffffffffffffffffffffffffffffffffffffff167f8c5be1e5ebec7d5bd14f71427d1e84f3dd0314c0f7b2291e5b200ac8c7c3b92560405160405180910390a45b505b836004600085815260200190815260200160002060006101000a81548173ffffffffffffffffffffffffffffffffffffffff021916908373ffffffffffffffffffffffffffffffffffffffff16021790555050505050565b6120d18383836122dd565b61218557600073ffffffffffffffffffffffffffffffffffffffff168373ffffffffffffffffffffffffffffffffffffffff160361214657806040517f7e27328900000000000000000000000000000000000000000000000000000000815260040161213d9190612806565b60405180910390fd5b81816040517f177e802f00000000000000000000000000000000000000000000000000000000815260040161217c9291906130dd565b60405180910390fd5b505050565b600080600090507a184f03e93ff9f4daa797ed6e38ed64bf6a1f01000000000000000083106121e8577a184f03e93ff9f4daa797ed6e38ed64bf6a1f01000000000000000083816121de576121dd6130ae565b5b0492506040810190505b6d04ee2d6d415b85acef81000000008310612225576d04ee2d6d415b85acef8100000000838161221b5761221a6130ae565b5b0492506020810190505b662386f26fc10000831061225457662386f26fc10000838161224a576122496130ae565b5b0492506010810190505b6305f5e100831061227d576305f5e1008381612273576122726130ae565b5b0492506008810190505b61271083106122a2576127108381612298576122976130ae565b5b0492506004810190505b606483106122c557606483816122bb576122ba6130ae565b5b0492506002810190505b600a83106122d4576001810190505b80915050919050565b60008073ffffffffffffffffffffffffffffffffffffffff168373ffffffffffffffffffffffffffffffffffffffff161415801561239557508273ffffffffffffffffffffffffffffffffffffffff168473ffffffffffffffffffffffffffffffffffffffff16148061235657506123558484611614565b5b8061239457508273ffffffffffffffffffffffffffffffffffffffff1661237c83611848565b73ffffffffffffffffffffffffffffffffffffffff16145b5b90509392505050565b6000604051905090565b600080fd5b600080fd5b60007fffffffff0000000000000000000000000000000000000000000000000000000082169050919050565b6123e7816123b2565b81146123f257600080fd5b50565b600081359050612404816123de565b92915050565b6000602082840312156124205761241f6123a8565b5b600061242e848285016123f5565b91505092915050565b60008115159050919050565b61244c81612437565b82525050565b60006020820190506124676000830184612443565b92915050565b600081519050919050565b600082825260208201905092915050565b60005b838110156124a757808201518184015260208101905061248c565b60008484015250505050565b6000601f19601f8301169050919050565b60006124cf8261246d565b6124d98185612478565b93506124e9818560208601612489565b6124f2816124b3565b840191505092915050565b6000602082019050818103600083015261251781846124c4565b905092915050565b6000819050919050565b6125328161251f565b811461253d57600080fd5b50565b60008135905061254f81612529565b92915050565b60006020828403121561256b5761256a6123a8565b5b600061257984828501612540565b91505092915050565b600073ffffffffffffffffffffffffffffffffffffffff82169050919050565b60006125ad82612582565b9050919050565b6125bd816125a2565b82525050565b60006020820190506125d860008301846125b4565b92915050565b6125e7816125a2565b81146125f257600080fd5b50565b600081359050612604816125de565b92915050565b60008060408385031215612621576126206123a8565b5b600061262f858286016125f5565b925050602061264085828601612540565b9150509250929050565b600080600060608486031215612663576126626123a8565b5b6000612671868287016125f5565b9350506020612682868287016125f5565b925050604061269386828701612540565b9150509250925092565b600081519050919050565b600082825260208201905092915050565b6000819050602082019050919050565b6126d28161251f565b82525050565b60006126e483836126c9565b60208301905092915050565b6000602082019050919050565b60006127088261269d565b61271281856126a8565b935061271d836126b9565b8060005b8381101561274e57815161273588826126d8565b9750612740836126f0565b925050600181019050612721565b5085935050505092915050565b6000602082019050818103600083015261277581846126fd565b905092915050565b6000819050919050565b60006127a261279d61279884612582565b61277d565b612582565b9050919050565b60006127b482612787565b9050919050565b60006127c6826127a9565b9050919050565b6127d6816127bb565b82525050565b60006020820190506127f160008301846127cd565b92915050565b6128008161251f565b82525050565b600060208201905061281b60008301846127f7565b92915050565b600060208284031215612837576128366123a8565b5b6000612845848285016125f5565b91505092915050565b60008060408385031215612865576128646123a8565b5b600061287385828601612540565b925050602061288485828601612540565b9150509250929050565b61289781612437565b81146128a257600080fd5b50565b6000813590506128b48161288e565b92915050565b600080604083850312156128d1576128d06123a8565b5b60006128df858286016125f5565b92505060206128f0858286016128a5565b9150509250929050565b600080fd5b600080fd5b7f4e487b7100000000000000000000000000000000000000000000000000000000600052604160045260246000fd5b61293c826124b3565b810181811067ffffffffffffffff8211171561295b5761295a612904565b5b80604052505050565b600061296e61239e565b905061297a8282612933565b919050565b600067ffffffffffffffff82111561299a57612999612904565b5b6129a3826124b3565b9050602081019050919050565b82818337600083830152505050565b60006129d26129cd8461297f565b612964565b9050828152602081018484840111156129ee576129ed6128ff565b5b6129f98482856129b0565b509392505050565b600082601f830112612a1657612a156128fa565b5b8135612a268482602086016129bf565b91505092915050565b60008060008060808587031215612a4957612a486123a8565b5b6000612a57878288016125f5565b9450506020612a68878288016125f5565b9350506040612a7987828801612540565b925050606085013567ffffffffffffffff811115612a9a57612a996123ad565b5b612aa687828801612a01565b91505092959194509250565b60008060408385031215612ac957612ac86123a8565b5b6000612ad7858286016125f5565b9250506020612ae8858286016125f5565b9150509250929050565b6000606082019050612b0760008301866125b4565b612b1460208301856125b4565b612b2160408301846127f7565b949350505050565b7f4e487b7100000000000000000000000000000000000000000000000000000000600052602260045260246000fd5b60006002820490506001821680612b7057607f821691505b602082108103612b8357612b82612b29565b5b50919050565b6000606082019050612b9e60008301866125b4565b612bab60208301856127f7565b612bb860408301846125b4565b949350505050565b6000819050919050565b612bdb612bd68261251f565b612bc0565b82525050565b60008160601b9050919050565b6000612bf982612be1565b9050919050565b6000612c0b82612bee565b9050919050565b612c23612c1e826125a2565b612c00565b82525050565b6000612c358286612bca565b602082019150612c458285612bca565b602082019150612c558284612c12565b601482019150819050949350505050565b7f796f752063616e277420626f72726f7720796f7572206f776e20636172000000600082015250565b6000612c9c601d83612478565b9150612ca782612c66565b602082019050919050565b60006020820190508181036000830152612ccb81612c8f565b9050919050565b7f746869732063617220686173206265656e20626f72726f776564000000000000600082015250565b6000612d08601a83612478565b9150612d1382612cd2565b602082019050919050565b60006020820190508181036000830152612d3781612cfb565b9050919050565b600081519050612d4d81612529565b92915050565b600060208284031215612d6957612d686123a8565b5b6000612d7784828501612d3e565b91505092915050565b7f796f7520646f6e2774206861766520656e6f756768206d6f6e65790000000000600082015250565b6000612db6601b83612478565b9150612dc182612d80565b602082019050919050565b60006020820190508181036000830152612de581612da9565b9050919050565b600081519050612dfb8161288e565b92915050565b600060208284031215612e1757612e166123a8565b5b6000612e2584828501612dec565b91505092915050565b7f4e487b7100000000000000000000000000000000000000000000000000000000600052601160045260246000fd5b6000612e688261251f565b9150612e738361251f565b9250828201905080821115612e8b57612e8a612e2e565b5b92915050565b7f4e487b7100000000000000000000000000000000000000000000000000000000600052603260045260246000fd5b6000612ecb8261251f565b9150612ed68361251f565b9250828203905081811115612eee57612eed612e2e565b5b92915050565b7f4e487b7100000000000000000000000000000000000000000000000000000000600052603160045260246000fd5b6000612f2e8261251f565b91507fffffffffffffffffffffffffffffffffffffffffffffffffffffffffffffffff8203612f6057612f5f612e2e565b5b600182019050919050565b600081905092915050565b6000612f818261246d565b612f8b8185612f6b565b9350612f9b818560208601612489565b80840191505092915050565b6000612fb38285612f76565b9150612fbf8284612f76565b91508190509392505050565b600081519050919050565b600082825260208201905092915050565b6000612ff282612fcb565b612ffc8185612fd6565b935061300c818560208601612489565b613015816124b3565b840191505092915050565b600060808201905061303560008301876125b4565b61304260208301866125b4565b61304f60408301856127f7565b81810360608301526130618184612fe7565b905095945050505050565b60008151905061307b816123de565b92915050565b600060208284031215613097576130966123a8565b5b60006130a58482850161306c565b91505092915050565b7f4e487b7100000000000000000000000000000000000000000000000000000000600052601260045260246000fd5b60006040820190506130f260008301856125b4565b6130ff60208301846127f7565b939250505056fea26469706673582212202f98d8b8b2a1dab114cb5884a6fd178756e4b4f76f9624a2847e731a735a47b564736f6c63430008140033",
  "linkReferences": {},
  "deployedLinkReferences": {}
}