{
  "_format": "hh-sol-artifact-1",
  "contractName": "BorrowYourCar",
  "sourceName": "contracts/BorrowYourCar.sol",
  "abi": [
    {
      "inputs": [
        {
          "internalType": "address",
          "name": "tokenAddress",
          "type": "address"
        }
      ],
      "stateMutability": "nonpayable",
      "type": "constructor"
    },
    {
      "inputs": [
        {
          "internalType": "address",
          "name": "sender",
          "type": "address"
        },
        {
          "internalType": "uint256",
          "name": "tokenId",
          "type": "uint256"
        },
        {
          "internalType": "address",
          "name": "owner",
          "type": "address"
        }
      ],
      "name": "ERC721IncorrectOwner",
      "type": "error"
    },
    {
      "inputs": [
        {
          "internalType": "address",
          "name": "operator",
          "type": "address"
        },
        {
          "internalType": "uint256",
          "name": "tokenId",
          "type": "uint256"
        }
      ],
      "name": "ERC721InsufficientApproval",
      "type": "error"
    },
    {
      "inputs": [
        {
          "internalType": "address",
          "name": "approver",
          "type": "address"
        }
      ],
      "name": "ERC721InvalidApprover",
      "type": "error"
    },
    {
      "inputs": [
        {
          "internalType": "address",
          "name": "operator",
          "type": "address"
        }
      ],
      "name": "ERC721InvalidOperator",
      "type": "error"
    },
    {
      "inputs": [
        {
          "internalType": "address",
          "name": "owner",
          "type": "address"
        }
      ],
      "name": "ERC721InvalidOwner",
      "type": "error"
    },
    {
      "inputs": [
        {
          "internalType": "address",
          "name": "receiver",
          "type": "address"
        }
      ],
      "name": "ERC721InvalidReceiver",
      "type": "error"
    },
    {
      "inputs": [
        {
          "internalType": "address",
          "name": "sender",
          "type": "address"
        }
      ],
      "name": "ERC721InvalidSender",
      "type": "error"
    },
    {
      "inputs": [
        {
          "internalType": "uint256",
          "name": "tokenId",
          "type": "uint256"
        }
      ],
      "name": "ERC721NonexistentToken",
      "type": "error"
    },
    {
      "anonymous": false,
      "inputs": [
        {
          "indexed": true,
          "internalType": "address",
          "name": "owner",
          "type": "address"
        },
        {
          "indexed": true,
          "internalType": "address",
          "name": "approved",
          "type": "address"
        },
        {
          "indexed": true,
          "internalType": "uint256",
          "name": "tokenId",
          "type": "uint256"
        }
      ],
      "name": "Approval",
      "type": "event"
    },
    {
      "anonymous": false,
      "inputs": [
        {
          "indexed": true,
          "internalType": "address",
          "name": "owner",
          "type": "address"
        },
        {
          "indexed": true,
          "internalType": "address",
          "name": "operator",
          "type": "address"
        },
        {
          "indexed": false,
          "internalType": "bool",
          "name": "approved",
          "type": "bool"
        }
      ],
      "name": "ApprovalForAll",
      "type": "event"
    },
    {
      "anonymous": false,
      "inputs": [
        {
          "indexed": false,
          "internalType": "uint32",
          "name": "carTokenId",
          "type": "uint32"
        },
        {
          "indexed": false,
          "internalType": "address",
          "name": "borrower",
          "type": "address"
        },
        {
          "indexed": false,
          "internalType": "uint256",
          "name": "startTime",
          "type": "uint256"
        },
        {
          "indexed": false,
          "internalType": "uint256",
          "name": "duration",
          "type": "uint256"
        }
      ],
      "name": "CarBorrowed",
      "type": "event"
    },
    {
      "anonymous": false,
      "inputs": [
        {
          "indexed": true,
          "internalType": "address",
          "name": "from",
          "type": "address"
        },
        {
          "indexed": true,
          "internalType": "address",
          "name": "to",
          "type": "address"
        },
        {
          "indexed": true,
          "internalType": "uint256",
          "name": "tokenId",
          "type": "uint256"
        }
      ],
      "name": "Transfer",
      "type": "event"
    },
    {
      "inputs": [
        {
          "internalType": "address",
          "name": "to",
          "type": "address"
        },
        {
          "internalType": "uint256",
          "name": "tokenId",
          "type": "uint256"
        }
      ],
      "name": "approve",
      "outputs": [],
      "stateMutability": "nonpayable",
      "type": "function"
    },
    {
      "inputs": [
        {
          "internalType": "address",
          "name": "owner",
          "type": "address"
        }
      ],
      "name": "balanceOf",
      "outputs": [
        {
          "internalType": "uint256",
          "name": "",
          "type": "uint256"
        }
      ],
      "stateMutability": "view",
      "type": "function"
    },
    {
      "inputs": [
        {
          "internalType": "uint256",
          "name": "id",
          "type": "uint256"
        },
        {
          "internalType": "uint256",
          "name": "time",
          "type": "uint256"
        }
      ],
      "name": "borrowcar",
      "outputs": [
        {
          "internalType": "bool",
          "name": "",
          "type": "bool"
        }
      ],
      "stateMutability": "nonpayable",
      "type": "function"
    },
    {
      "inputs": [
        {
          "internalType": "uint256",
          "name": "",
          "type": "uint256"
        }
      ],
      "name": "borrowcars",
      "outputs": [
        {
          "internalType": "uint256",
          "name": "",
          "type": "uint256"
        }
      ],
      "stateMutability": "view",
      "type": "function"
    },
    {
      "inputs": [
        {
          "internalType": "uint256",
          "name": "",
          "type": "uint256"
        }
      ],
      "name": "cars",
      "outputs": [
        {
          "internalType": "address",
          "name": "owner",
          "type": "address"
        },
        {
          "internalType": "address",
          "name": "borrower",
          "type": "address"
        },
        {
          "internalType": "uint256",
          "name": "borrowUntil",
          "type": "uint256"
        }
      ],
      "stateMutability": "view",
      "type": "function"
    },
    {
      "inputs": [
        {
          "internalType": "uint256",
          "name": "tokenId",
          "type": "uint256"
        }
      ],
      "name": "getApproved",
      "outputs": [
        {
          "internalType": "address",
          "name": "",
          "type": "address"
        }
      ],
      "stateMutability": "view",
      "type": "function"
    },
    {
      "inputs": [
        {
          "internalType": "uint256",
          "name": "id",
          "type": "uint256"
        }
      ],
      "name": "getowner",
      "outputs": [
        {
          "internalType": "address",
          "name": "",
          "type": "address"
        }
      ],
      "stateMutability": "view",
      "type": "function"
    },
    {
      "inputs": [],
      "name": "getownercar",
      "outputs": [
        {
          "internalType": "uint256[]",
          "name": "",
          "type": "uint256[]"
        }
      ],
      "stateMutability": "view",
      "type": "function"
    },
    {
      "inputs": [],
      "name": "getunborrowcar",
      "outputs": [
        {
          "internalType": "uint256[]",
          "name": "",
          "type": "uint256[]"
        }
      ],
      "stateMutability": "view",
      "type": "function"
    },
    {
      "inputs": [
        {
          "internalType": "uint256",
          "name": "id",
          "type": "uint256"
        }
      ],
      "name": "getwhoborrowcar",
      "outputs": [
        {
          "internalType": "address",
          "name": "",
          "type": "address"
        }
      ],
      "stateMutability": "view",
      "type": "function"
    },
    {
      "inputs": [],
      "name": "helloworld",
      "outputs": [
        {
          "internalType": "string",
          "name": "",
          "type": "string"
        }
      ],
      "stateMutability": "pure",
      "type": "function"
    },
    {
      "inputs": [
        {
          "internalType": "address",
          "name": "owner",
          "type": "address"
        },
        {
          "internalType": "address",
          "name": "operator",
          "type": "address"
        }
      ],
      "name": "isApprovedForAll",
      "outputs": [
        {
          "internalType": "bool",
          "name": "",
          "type": "bool"
        }
      ],
      "stateMutability": "view",
      "type": "function"
    },
    {
      "inputs": [],
      "name": "myERC20",
      "outputs": [
        {
          "internalType": "contract MyERC20",
          "name": "",
          "type": "address"
        }
      ],
      "stateMutability": "view",
      "type": "function"
    },
    {
      "inputs": [],
      "name": "name",
      "outputs": [
        {
          "internalType": "string",
          "name": "",
          "type": "string"
        }
      ],
      "stateMutability": "view",
      "type": "function"
    },
    {
      "inputs": [],
      "name": "newcar",
      "outputs": [],
      "stateMutability": "nonpayable",
      "type": "function"
    },
    {
      "inputs": [
        {
          "internalType": "uint256",
          "name": "tokenId",
          "type": "uint256"
        }
      ],
      "name": "ownerOf",
      "outputs": [
        {
          "internalType": "address",
          "name": "",
          "type": "address"
        }
      ],
      "stateMutability": "view",
      "type": "function"
    },
    {
      "inputs": [
        {
          "internalType": "address",
          "name": "",
          "type": "address"
        },
        {
          "internalType": "uint256",
          "name": "",
          "type": "uint256"
        }
      ],
      "name": "owners",
      "outputs": [
        {
          "internalType": "uint256",
          "name": "",
          "type": "uint256"
        }
      ],
      "stateMutability": "view",
      "type": "function"
    },
    {
      "inputs": [
        {
          "internalType": "address",
          "name": "from",
          "type": "address"
        },
        {
          "internalType": "address",
          "name": "to",
          "type": "address"
        },
        {
          "internalType": "uint256",
          "name": "tokenId",
          "type": "uint256"
        }
      ],
      "name": "safeTransferFrom",
      "outputs": [],
      "stateMutability": "nonpayable",
      "type": "function"
    },
    {
      "inputs": [
        {
          "internalType": "address",
          "name": "from",
          "type": "address"
        },
        {
          "internalType": "address",
          "name": "to",
          "type": "address"
        },
        {
          "internalType": "uint256",
          "name": "tokenId",
          "type": "uint256"
        },
        {
          "internalType": "bytes",
          "name": "data",
          "type": "bytes"
        }
      ],
      "name": "safeTransferFrom",
      "outputs": [],
      "stateMutability": "nonpayable",
      "type": "function"
    },
    {
      "inputs": [
        {
          "internalType": "address",
          "name": "operator",
          "type": "address"
        },
        {
          "internalType": "bool",
          "name": "approved",
          "type": "bool"
        }
      ],
      "name": "setApprovalForAll",
      "outputs": [],
      "stateMutability": "nonpayable",
      "type": "function"
    },
    {
      "inputs": [
        {
          "internalType": "bytes4",
          "name": "interfaceId",
          "type": "bytes4"
        }
      ],
      "name": "supportsInterface",
      "outputs": [
        {
          "internalType": "bool",
          "name": "",
          "type": "bool"
        }
      ],
      "stateMutability": "view",
      "type": "function"
    },
    {
      "inputs": [],
      "name": "symbol",
      "outputs": [
        {
          "internalType": "string",
          "name": "",
          "type": "string"
        }
      ],
      "stateMutability": "view",
      "type": "function"
    },
    {
      "inputs": [
        {
          "internalType": "uint256",
          "name": "tokenId",
          "type": "uint256"
        }
      ],
      "name": "tokenURI",
      "outputs": [
        {
          "internalType": "string",
          "name": "",
          "type": "string"
        }
      ],
      "stateMutability": "view",
      "type": "function"
    },
    {
      "inputs": [
        {
          "internalType": "address",
          "name": "from",
          "type": "address"
        },
        {
          "internalType": "address",
          "name": "to",
          "type": "address"
        },
        {
          "internalType": "uint256",
          "name": "tokenId",
          "type": "uint256"
        }
      ],
      "name": "transferFrom",
      "outputs": [],
      "stateMutability": "nonpayable",
      "type": "function"
    },
    {
      "inputs": [
        {
          "internalType": "uint256",
          "name": "",
          "type": "uint256"
        }
      ],
      "name": "unborrowcars",
      "outputs": [
        {
          "internalType": "uint256",
          "name": "",
          "type": "uint256"
        }
      ],
      "stateMutability": "view",
      "type": "function"
    },
    {
      "inputs": [],
      "name": "updatecar",
      "outputs": [],
      "stateMutability": "nonpayable",
      "type": "function"
    }
  ],
  "bytecode": "0x60806040523480156200001157600080fd5b50604051620033fe380380620033fe83398181016040528101906200003791906200017b565b6040518060400160405280600d81526020017f426f72726f77596f7572436172000000000000000000000000000000000000008152506040518060400160405280600381526020017f42594300000000000000000000000000000000000000000000000000000000008152508160009081620000b4919062000427565b508060019081620000c6919062000427565b50505080600a60006101000a81548173ffffffffffffffffffffffffffffffffffffffff021916908373ffffffffffffffffffffffffffffffffffffffff160217905550506200050e565b600080fd5b600073ffffffffffffffffffffffffffffffffffffffff82169050919050565b6000620001438262000116565b9050919050565b620001558162000136565b81146200016157600080fd5b50565b60008151905062000175816200014a565b92915050565b60006020828403121562000194576200019362000111565b5b6000620001a48482850162000164565b91505092915050565b600081519050919050565b7f4e487b7100000000000000000000000000000000000000000000000000000000600052604160045260246000fd5b7f4e487b7100000000000000000000000000000000000000000000000000000000600052602260045260246000fd5b600060028204905060018216806200022f57607f821691505b602082108103620002455762000244620001e7565b5b50919050565b60008190508160005260206000209050919050565b60006020601f8301049050919050565b600082821b905092915050565b600060088302620002af7fffffffffffffffffffffffffffffffffffffffffffffffffffffffffffffffff8262000270565b620002bb868362000270565b95508019841693508086168417925050509392505050565b6000819050919050565b6000819050919050565b60006200030862000302620002fc84620002d3565b620002dd565b620002d3565b9050919050565b6000819050919050565b6200032483620002e7565b6200033c62000333826200030f565b8484546200027d565b825550505050565b600090565b6200035362000344565b6200036081848462000319565b505050565b5b8181101562000388576200037c60008262000349565b60018101905062000366565b5050565b601f821115620003d757620003a1816200024b565b620003ac8462000260565b81016020851015620003bc578190505b620003d4620003cb8562000260565b83018262000365565b50505b505050565b600082821c905092915050565b6000620003fc60001984600802620003dc565b1980831691505092915050565b6000620004178383620003e9565b9150826002028217905092915050565b6200043282620001ad565b67ffffffffffffffff8111156200044e576200044d620001b8565b5b6200045a825462000216565b620004678282856200038c565b600060209050601f8311600181146200049f57600084156200048a578287015190505b62000496858262000409565b86555062000506565b601f198416620004af866200024b565b60005b82811015620004d957848901518255600182019150602085019450602081019050620004b2565b86831015620004f95784890151620004f5601f891682620003e9565b8355505b6001600288020188555050505b505050505050565b612ee0806200051e6000396000f3fe608060405234801561001057600080fd5b506004361061018e5760003560e01c806370a08231116100de578063b2852a4a11610097578063c87b56dd11610071578063c87b56dd14610497578063e985e9c5146104c7578063f03b37a3146104f7578063f7746e36146105275761018e565b8063b2852a4a14610441578063b88d4fde1461044b578063c7c00de1146104675761018e565b806370a082311461036d5780637741832d1461039d578063851f78e4146103a757806395d89b41146103d75780639b3e2787146103f5578063a22cb465146104255761018e565b806330043baf1161014b5780636352211e116101255780636352211e146102d1578063677e7175146103015780636d3739c41461031f5780636d8565df1461033d5761018e565b806330043baf1461026757806342842e0e146102855780634845ae7a146102a15761018e565b806301ffc9a71461019357806306fdde03146101c3578063081812fc146101e1578063095ea7b31461021157806323b872dd1461022d5780632f2f485914610249575b600080fd5b6101ad60048036038101906101a891906121ae565b610559565b6040516101ba91906121f6565b60405180910390f35b6101cb61063b565b6040516101d891906122a1565b60405180910390f35b6101fb60048036038101906101f691906122f9565b6106cd565b6040516102089190612367565b60405180910390f35b61022b600480360381019061022691906123ae565b6106e9565b005b610247600480360381019061024291906123ee565b6106ff565b005b610251610801565b60405161025e91906122a1565b60405180910390f35b61026f61083e565b60405161027c91906124ff565b60405180910390f35b61029f600480360381019061029a91906123ee565b610896565b005b6102bb60048036038101906102b691906122f9565b6108b6565b6040516102c89190612367565b60405180910390f35b6102eb60048036038101906102e691906122f9565b6108f6565b6040516102f89190612367565b60405180910390f35b610309610908565b60405161031691906124ff565b60405180910390f35b61032761099d565b6040516103349190612580565b60405180910390f35b610357600480360381019061035291906122f9565b6109c3565b60405161036491906125aa565b60405180910390f35b610387600480360381019061038291906125c5565b6109e7565b60405161039491906125aa565b60405180910390f35b6103a5610aa1565b005b6103c160048036038101906103bc91906125f2565b610c62565b6040516103ce91906121f6565b60405180910390f35b6103df6110bc565b6040516103ec91906122a1565b60405180910390f35b61040f600480360381019061040a91906123ae565b61114e565b60405161041c91906125aa565b60405180910390f35b61043f600480360381019061043a919061265e565b61117f565b005b610449611195565b005b610465600480360381019061046091906127d3565b611312565b005b610481600480360381019061047c91906122f9565b61132f565b60405161048e9190612367565b60405180910390f35b6104b160048036038101906104ac91906122f9565b61136f565b6040516104be91906122a1565b60405180910390f35b6104e160048036038101906104dc9190612856565b6113d8565b6040516104ee91906121f6565b60405180910390f35b610511600480360381019061050c91906122f9565b61146c565b60405161051e91906125aa565b60405180910390f35b610541600480360381019061053c91906122f9565b611490565b60405161055093929190612896565b60405180910390f35b60007f80ac58cd000000000000000000000000000000000000000000000000000000007bffffffffffffffffffffffffffffffffffffffffffffffffffffffff1916827bffffffffffffffffffffffffffffffffffffffffffffffffffffffff1916148061062457507f5b5e139f000000000000000000000000000000000000000000000000000000007bffffffffffffffffffffffffffffffffffffffffffffffffffffffff1916827bffffffffffffffffffffffffffffffffffffffffffffffffffffffff1916145b806106345750610633826114fa565b5b9050919050565b60606000805461064a906128fc565b80601f0160208091040260200160405190810160405280929190818152602001828054610676906128fc565b80156106c35780601f10610698576101008083540402835291602001916106c3565b820191906000526020600020905b8154815290600101906020018083116106a657829003601f168201915b5050505050905090565b60006106d882611564565b506106e2826115ec565b9050919050565b6106fb82826106f6611629565b611631565b5050565b600073ffffffffffffffffffffffffffffffffffffffff168273ffffffffffffffffffffffffffffffffffffffff16036107715760006040517f64a0ae920000000000000000000000000000000000000000000000000000000081526004016107689190612367565b60405180910390fd5b60006107858383610780611629565b611643565b90508373ffffffffffffffffffffffffffffffffffffffff168173ffffffffffffffffffffffffffffffffffffffff16146107fb578382826040517f64283d7b0000000000000000000000000000000000000000000000000000000081526004016107f29392919061292d565b60405180910390fd5b50505050565b60606040518060400160405280600b81526020017f68656c6c6f20776f726c64000000000000000000000000000000000000000000815250905090565b6060600880548060200260200160405190810160405280929190818152602001828054801561088c57602002820191906000526020600020905b815481526020019060010190808311610878575b5050505050905090565b6108b183838360405180602001604052806000815250611312565b505050565b60006006600083815260200190815260200160002060000160009054906101000a900473ffffffffffffffffffffffffffffffffffffffff169050919050565b600061090182611564565b9050919050565b6060600760003373ffffffffffffffffffffffffffffffffffffffff1673ffffffffffffffffffffffffffffffffffffffff16815260200190815260200160002080548060200260200160405190810160405280929190818152602001828054801561099357602002820191906000526020600020905b81548152602001906001019080831161097f575b5050505050905090565b600a60009054906101000a900473ffffffffffffffffffffffffffffffffffffffff1681565b600981815481106109d357600080fd5b906000526020600020016000915090505481565b60008073ffffffffffffffffffffffffffffffffffffffff168273ffffffffffffffffffffffffffffffffffffffff1603610a5a5760006040517f89c62b64000000000000000000000000000000000000000000000000000000008152600401610a519190612367565b60405180910390fd5b600360008373ffffffffffffffffffffffffffffffffffffffff1673ffffffffffffffffffffffffffffffffffffffff168152602001908152602001600020549050919050565b6000424433604051602001610ab8939291906129cd565b60405160208183030381529060405280519060200120905060405180606001604052803373ffffffffffffffffffffffffffffffffffffffff168152602001600073ffffffffffffffffffffffffffffffffffffffff1681526020016000815250600660008360001c815260200190815260200160002060008201518160000160006101000a81548173ffffffffffffffffffffffffffffffffffffffff021916908373ffffffffffffffffffffffffffffffffffffffff16021790555060208201518160010160006101000a81548173ffffffffffffffffffffffffffffffffffffffff021916908373ffffffffffffffffffffffffffffffffffffffff16021790555060408201518160020155905050600760003373ffffffffffffffffffffffffffffffffffffffff1673ffffffffffffffffffffffffffffffffffffffff1681526020019081526020016000208160001c908060018154018082558091505060019003906000526020600020016000909190919091505560088160001c908060018154018082558091505060019003906000526020600020016000909190919091505550565b60003373ffffffffffffffffffffffffffffffffffffffff166006600085815260200190815260200160002060000160009054906101000a900473ffffffffffffffffffffffffffffffffffffffff1673ffffffffffffffffffffffffffffffffffffffff1603610d08576040517f08c379a0000000000000000000000000000000000000000000000000000000008152600401610cff90612a56565b60405180910390fd5b6000600660008581526020019081526020016000206002015414610d2f57600090506110b6565b6000600660008581526020019081526020016000206002015414610d88576040517f08c379a0000000000000000000000000000000000000000000000000000000008152600401610d7f90612ac2565b60405180910390fd5b600082905080600a60009054906101000a900473ffffffffffffffffffffffffffffffffffffffff1673ffffffffffffffffffffffffffffffffffffffff166370a08231336040518263ffffffff1660e01b8152600401610de99190612367565b602060405180830381865afa158015610e06573d6000803e3d6000fd5b505050506040513d601f19601f82011682018060405250810190610e2a9190612af7565b1015610e6b576040517f08c379a0000000000000000000000000000000000000000000000000000000008152600401610e6290612b70565b60405180910390fd5b600a60009054906101000a900473ffffffffffffffffffffffffffffffffffffffff1673ffffffffffffffffffffffffffffffffffffffff166323b872dd336006600088815260200190815260200160002060000160009054906101000a900473ffffffffffffffffffffffffffffffffffffffff16846040518463ffffffff1660e01b8152600401610f0093929190612896565b6020604051808303816000875af1158015610f1f573d6000803e3d6000fd5b505050506040513d601f19601f82011682018060405250810190610f439190612ba5565b508242610f509190612c01565b6006600086815260200190815260200160002060020181905550336006600086815260200190815260200160002060010160006101000a81548173ffffffffffffffffffffffffffffffffffffffff021916908373ffffffffffffffffffffffffffffffffffffffff160217905550600984908060018154018082558091505060019003906000526020600020016000909190919091505560005b6008805490508110156110af57846008828154811061100d5761100c612c35565b5b90600052602060002001540361109c57600860016008805490506110319190612c64565b8154811061104257611041612c35565b5b90600052602060002001546008828154811061106157611060612c35565b5b9060005260206000200181905550600880548061108157611080612c98565b5b600190038181906000526020600020016000905590556110af565b80806110a790612cc7565b915050610feb565b5060019150505b92915050565b6060600180546110cb906128fc565b80601f01602080910402602001604051908101604052809291908181526020018280546110f7906128fc565b80156111445780601f1061111957610100808354040283529160200191611144565b820191906000526020600020905b81548152906001019060200180831161112757829003601f168201915b5050505050905090565b6007602052816000526040600020818154811061116a57600080fd5b90600052602060002001600091509150505481565b61119161118a611629565b838361185d565b5050565b60005b60098054905081101561130f576000600982815481106111bb576111ba612c35565b5b90600052602060002001549050426006600083815260200190815260200160002060020154116112fb5760006006600083815260200190815260200160002060010160006101000a81548173ffffffffffffffffffffffffffffffffffffffff021916908373ffffffffffffffffffffffffffffffffffffffff160217905550600060066000838152602001908152602001600020600201819055506009600160098054905061126b9190612c64565b8154811061127c5761127b612c35565b5b90600052602060002001546009838154811061129b5761129a612c35565b5b906000526020600020018190555060098054806112bb576112ba612c98565b5b6001900381819060005260206000200160009055905560088190806001815401808255809150506001900390600052602060002001600090919091909150555b50808061130790612cc7565b915050611198565b50565b61131d8484846106ff565b611329848484846119cc565b50505050565b60006006600083815260200190815260200160002060010160009054906101000a900473ffffffffffffffffffffffffffffffffffffffff169050919050565b606061137a82611564565b506000611385611b83565b905060008151116113a557604051806020016040528060008152506113d0565b806113af84611b9a565b6040516020016113c0929190612d4b565b6040516020818303038152906040525b915050919050565b6000600560008473ffffffffffffffffffffffffffffffffffffffff1673ffffffffffffffffffffffffffffffffffffffff16815260200190815260200160002060008373ffffffffffffffffffffffffffffffffffffffff1673ffffffffffffffffffffffffffffffffffffffff16815260200190815260200160002060009054906101000a900460ff16905092915050565b6008818154811061147c57600080fd5b906000526020600020016000915090505481565b60066020528060005260406000206000915090508060000160009054906101000a900473ffffffffffffffffffffffffffffffffffffffff16908060010160009054906101000a900473ffffffffffffffffffffffffffffffffffffffff16908060020154905083565b60007f01ffc9a7000000000000000000000000000000000000000000000000000000007bffffffffffffffffffffffffffffffffffffffffffffffffffffffff1916827bffffffffffffffffffffffffffffffffffffffffffffffffffffffff1916149050919050565b60008061157083611c68565b9050600073ffffffffffffffffffffffffffffffffffffffff168173ffffffffffffffffffffffffffffffffffffffff16036115e357826040517f7e2732890000000000000000000000000000000000000000000000000000000081526004016115da91906125aa565b60405180910390fd5b80915050919050565b60006004600083815260200190815260200160002060009054906101000a900473ffffffffffffffffffffffffffffffffffffffff169050919050565b600033905090565b61163e8383836001611ca5565b505050565b60008061164f84611c68565b9050600073ffffffffffffffffffffffffffffffffffffffff168373ffffffffffffffffffffffffffffffffffffffff161461169157611690818486611e6a565b5b600073ffffffffffffffffffffffffffffffffffffffff168173ffffffffffffffffffffffffffffffffffffffff1614611722576116d3600085600080611ca5565b6001600360008373ffffffffffffffffffffffffffffffffffffffff1673ffffffffffffffffffffffffffffffffffffffff168152602001908152602001600020600082825403925050819055505b600073ffffffffffffffffffffffffffffffffffffffff168573ffffffffffffffffffffffffffffffffffffffff16146117a5576001600360008773ffffffffffffffffffffffffffffffffffffffff1673ffffffffffffffffffffffffffffffffffffffff168152602001908152602001600020600082825401925050819055505b846002600086815260200190815260200160002060006101000a81548173ffffffffffffffffffffffffffffffffffffffff021916908373ffffffffffffffffffffffffffffffffffffffff160217905550838573ffffffffffffffffffffffffffffffffffffffff168273ffffffffffffffffffffffffffffffffffffffff167fddf252ad1be2c89b69c2b068fc378daa952ba7f163c4a11628f55a4df523b3ef60405160405180910390a4809150509392505050565b600073ffffffffffffffffffffffffffffffffffffffff168273ffffffffffffffffffffffffffffffffffffffff16036118ce57816040517f5b08ba180000000000000000000000000000000000000000000000000000000081526004016118c59190612367565b60405180910390fd5b80600560008573ffffffffffffffffffffffffffffffffffffffff1673ffffffffffffffffffffffffffffffffffffffff16815260200190815260200160002060008473ffffffffffffffffffffffffffffffffffffffff1673ffffffffffffffffffffffffffffffffffffffff16815260200190815260200160002060006101000a81548160ff0219169083151502179055508173ffffffffffffffffffffffffffffffffffffffff168373ffffffffffffffffffffffffffffffffffffffff167f17307eab39ab6107e8899845ad3d59bd9653f200f220920489ca2b5937696c31836040516119bf91906121f6565b60405180910390a3505050565b60008373ffffffffffffffffffffffffffffffffffffffff163b1115611b7d578273ffffffffffffffffffffffffffffffffffffffff1663150b7a02611a10611629565b8685856040518563ffffffff1660e01b8152600401611a329493929190612dc4565b6020604051808303816000875af1925050508015611a6e57506040513d601f19601f82011682018060405250810190611a6b9190612e25565b60015b611af2573d8060008114611a9e576040519150601f19603f3d011682016040523d82523d6000602084013e611aa3565b606091505b506000815103611aea57836040517f64a0ae92000000000000000000000000000000000000000000000000000000008152600401611ae19190612367565b60405180910390fd5b805181602001fd5b63150b7a0260e01b7bffffffffffffffffffffffffffffffffffffffffffffffffffffffff1916817bffffffffffffffffffffffffffffffffffffffffffffffffffffffff191614611b7b57836040517f64a0ae92000000000000000000000000000000000000000000000000000000008152600401611b729190612367565b60405180910390fd5b505b50505050565b606060405180602001604052806000815250905090565b606060006001611ba984611f2e565b01905060008167ffffffffffffffff811115611bc857611bc76126a8565b5b6040519080825280601f01601f191660200182016040528015611bfa5781602001600182028036833780820191505090505b509050600082602001820190505b600115611c5d578080600190039150507f3031323334353637383961626364656600000000000000000000000000000000600a86061a8153600a8581611c5157611c50612e52565b5b04945060008503611c08575b819350505050919050565b60006002600083815260200190815260200160002060009054906101000a900473ffffffffffffffffffffffffffffffffffffffff169050919050565b8080611cde5750600073ffffffffffffffffffffffffffffffffffffffff168273ffffffffffffffffffffffffffffffffffffffff1614155b15611e12576000611cee84611564565b9050600073ffffffffffffffffffffffffffffffffffffffff168373ffffffffffffffffffffffffffffffffffffffff1614158015611d5957508273ffffffffffffffffffffffffffffffffffffffff168173ffffffffffffffffffffffffffffffffffffffff1614155b8015611d6c5750611d6a81846113d8565b155b15611dae57826040517fa9fbf51f000000000000000000000000000000000000000000000000000000008152600401611da59190612367565b60405180910390fd5b8115611e1057838573ffffffffffffffffffffffffffffffffffffffff168273ffffffffffffffffffffffffffffffffffffffff167f8c5be1e5ebec7d5bd14f71427d1e84f3dd0314c0f7b2291e5b200ac8c7c3b92560405160405180910390a45b505b836004600085815260200190815260200160002060006101000a81548173ffffffffffffffffffffffffffffffffffffffff021916908373ffffffffffffffffffffffffffffffffffffffff16021790555050505050565b611e75838383612081565b611f2957600073ffffffffffffffffffffffffffffffffffffffff168373ffffffffffffffffffffffffffffffffffffffff1603611eea57806040517f7e273289000000000000000000000000000000000000000000000000000000008152600401611ee191906125aa565b60405180910390fd5b81816040517f177e802f000000000000000000000000000000000000000000000000000000008152600401611f20929190612e81565b60405180910390fd5b505050565b600080600090507a184f03e93ff9f4daa797ed6e38ed64bf6a1f0100000000000000008310611f8c577a184f03e93ff9f4daa797ed6e38ed64bf6a1f0100000000000000008381611f8257611f81612e52565b5b0492506040810190505b6d04ee2d6d415b85acef81000000008310611fc9576d04ee2d6d415b85acef81000000008381611fbf57611fbe612e52565b5b0492506020810190505b662386f26fc100008310611ff857662386f26fc100008381611fee57611fed612e52565b5b0492506010810190505b6305f5e1008310612021576305f5e100838161201757612016612e52565b5b0492506008810190505b612710831061204657612710838161203c5761203b612e52565b5b0492506004810190505b60648310612069576064838161205f5761205e612e52565b5b0492506002810190505b600a8310612078576001810190505b80915050919050565b60008073ffffffffffffffffffffffffffffffffffffffff168373ffffffffffffffffffffffffffffffffffffffff161415801561213957508273ffffffffffffffffffffffffffffffffffffffff168473ffffffffffffffffffffffffffffffffffffffff1614806120fa57506120f984846113d8565b5b8061213857508273ffffffffffffffffffffffffffffffffffffffff16612120836115ec565b73ffffffffffffffffffffffffffffffffffffffff16145b5b90509392505050565b6000604051905090565b600080fd5b600080fd5b60007fffffffff0000000000000000000000000000000000000000000000000000000082169050919050565b61218b81612156565b811461219657600080fd5b50565b6000813590506121a881612182565b92915050565b6000602082840312156121c4576121c361214c565b5b60006121d284828501612199565b91505092915050565b60008115159050919050565b6121f0816121db565b82525050565b600060208201905061220b60008301846121e7565b92915050565b600081519050919050565b600082825260208201905092915050565b60005b8381101561224b578082015181840152602081019050612230565b60008484015250505050565b6000601f19601f8301169050919050565b600061227382612211565b61227d818561221c565b935061228d81856020860161222d565b61229681612257565b840191505092915050565b600060208201905081810360008301526122bb8184612268565b905092915050565b6000819050919050565b6122d6816122c3565b81146122e157600080fd5b50565b6000813590506122f3816122cd565b92915050565b60006020828403121561230f5761230e61214c565b5b600061231d848285016122e4565b91505092915050565b600073ffffffffffffffffffffffffffffffffffffffff82169050919050565b600061235182612326565b9050919050565b61236181612346565b82525050565b600060208201905061237c6000830184612358565b92915050565b61238b81612346565b811461239657600080fd5b50565b6000813590506123a881612382565b92915050565b600080604083850312156123c5576123c461214c565b5b60006123d385828601612399565b92505060206123e4858286016122e4565b9150509250929050565b6000806000606084860312156124075761240661214c565b5b600061241586828701612399565b935050602061242686828701612399565b9250506040612437868287016122e4565b9150509250925092565b600081519050919050565b600082825260208201905092915050565b6000819050602082019050919050565b612476816122c3565b82525050565b6000612488838361246d565b60208301905092915050565b6000602082019050919050565b60006124ac82612441565b6124b6818561244c565b93506124c18361245d565b8060005b838110156124f25781516124d9888261247c565b97506124e483612494565b9250506001810190506124c5565b5085935050505092915050565b6000602082019050818103600083015261251981846124a1565b905092915050565b6000819050919050565b600061254661254161253c84612326565b612521565b612326565b9050919050565b60006125588261252b565b9050919050565b600061256a8261254d565b9050919050565b61257a8161255f565b82525050565b60006020820190506125956000830184612571565b92915050565b6125a4816122c3565b82525050565b60006020820190506125bf600083018461259b565b92915050565b6000602082840312156125db576125da61214c565b5b60006125e984828501612399565b91505092915050565b600080604083850312156126095761260861214c565b5b6000612617858286016122e4565b9250506020612628858286016122e4565b9150509250929050565b61263b816121db565b811461264657600080fd5b50565b60008135905061265881612632565b92915050565b600080604083850312156126755761267461214c565b5b600061268385828601612399565b925050602061269485828601612649565b9150509250929050565b600080fd5b600080fd5b7f4e487b7100000000000000000000000000000000000000000000000000000000600052604160045260246000fd5b6126e082612257565b810181811067ffffffffffffffff821117156126ff576126fe6126a8565b5b80604052505050565b6000612712612142565b905061271e82826126d7565b919050565b600067ffffffffffffffff82111561273e5761273d6126a8565b5b61274782612257565b9050602081019050919050565b82818337600083830152505050565b600061277661277184612723565b612708565b905082815260208101848484011115612792576127916126a3565b5b61279d848285612754565b509392505050565b600082601f8301126127ba576127b961269e565b5b81356127ca848260208601612763565b91505092915050565b600080600080608085870312156127ed576127ec61214c565b5b60006127fb87828801612399565b945050602061280c87828801612399565b935050604061281d878288016122e4565b925050606085013567ffffffffffffffff81111561283e5761283d612151565b5b61284a878288016127a5565b91505092959194509250565b6000806040838503121561286d5761286c61214c565b5b600061287b85828601612399565b925050602061288c85828601612399565b9150509250929050565b60006060820190506128ab6000830186612358565b6128b86020830185612358565b6128c5604083018461259b565b949350505050565b7f4e487b7100000000000000000000000000000000000000000000000000000000600052602260045260246000fd5b6000600282049050600182168061291457607f821691505b602082108103612927576129266128cd565b5b50919050565b60006060820190506129426000830186612358565b61294f602083018561259b565b61295c6040830184612358565b949350505050565b6000819050919050565b61297f61297a826122c3565b612964565b82525050565b60008160601b9050919050565b600061299d82612985565b9050919050565b60006129af82612992565b9050919050565b6129c76129c282612346565b6129a4565b82525050565b60006129d9828661296e565b6020820191506129e9828561296e565b6020820191506129f982846129b6565b601482019150819050949350505050565b7f596f7520636f756c646e277420626f72726f7720796f7572206f776e20636172600082015250565b6000612a4060208361221c565b9150612a4b82612a0a565b602082019050919050565b60006020820190508181036000830152612a6f81612a33565b9050919050565b7f546869732063617220697320626f72726f77696e670000000000000000000000600082015250565b6000612aac60158361221c565b9150612ab782612a76565b602082019050919050565b60006020820190508181036000830152612adb81612a9f565b9050919050565b600081519050612af1816122cd565b92915050565b600060208284031215612b0d57612b0c61214c565b5b6000612b1b84828501612ae2565b91505092915050565b7f596f7520646f6e2774206861766520656e6f756768206d6f6e65790000000000600082015250565b6000612b5a601b8361221c565b9150612b6582612b24565b602082019050919050565b60006020820190508181036000830152612b8981612b4d565b9050919050565b600081519050612b9f81612632565b92915050565b600060208284031215612bbb57612bba61214c565b5b6000612bc984828501612b90565b91505092915050565b7f4e487b7100000000000000000000000000000000000000000000000000000000600052601160045260246000fd5b6000612c0c826122c3565b9150612c17836122c3565b9250828201905080821115612c2f57612c2e612bd2565b5b92915050565b7f4e487b7100000000000000000000000000000000000000000000000000000000600052603260045260246000fd5b6000612c6f826122c3565b9150612c7a836122c3565b9250828203905081811115612c9257612c91612bd2565b5b92915050565b7f4e487b7100000000000000000000000000000000000000000000000000000000600052603160045260246000fd5b6000612cd2826122c3565b91507fffffffffffffffffffffffffffffffffffffffffffffffffffffffffffffffff8203612d0457612d03612bd2565b5b600182019050919050565b600081905092915050565b6000612d2582612211565b612d2f8185612d0f565b9350612d3f81856020860161222d565b80840191505092915050565b6000612d578285612d1a565b9150612d638284612d1a565b91508190509392505050565b600081519050919050565b600082825260208201905092915050565b6000612d9682612d6f565b612da08185612d7a565b9350612db081856020860161222d565b612db981612257565b840191505092915050565b6000608082019050612dd96000830187612358565b612de66020830186612358565b612df3604083018561259b565b8181036060830152612e058184612d8b565b905095945050505050565b600081519050612e1f81612182565b92915050565b600060208284031215612e3b57612e3a61214c565b5b6000612e4984828501612e10565b91505092915050565b7f4e487b7100000000000000000000000000000000000000000000000000000000600052601260045260246000fd5b6000604082019050612e966000830185612358565b612ea3602083018461259b565b939250505056fea2646970667358221220e68b2dd61e2abd78868bea9d402f3d3fc5df944e7b12f7b83107f1696ab3181564736f6c63430008140033",
  "linkReferences": {},
  "deployedLinkReferences": {}
}